:0400000055EF00F0C8
:08000800046ED8CF05F0E0CF33
:1000100006F00001E9CF0CF0EACF07F0E1CF08F0DD
:10002000E2CF09F0D9CF0AF0DACF0BF0F3CF12F01C
:10003000F4CF13F0FACF14F000C00EF001C00FF0AF
:1000400002C010F003C011F0F2AA2AEF00F0F2B4DF
:100050004BEF00F00EC000F00FC001F010C002F036
:1000600011C003F00CC0E9FF07C0EAFF078E08C00B
:10007000E1FF09C0E2FF0AC0D9FF0BC0DAFF12C0DE
:10008000F3FF13C0F4FF14C0FAFF045006C0E0FFF2
:1000900005C0D8FF1000948082A002D08B9001D0C0
:1000A0008B809490F2942AEF00F0F86AD09E078E2D
:1000B000EA6AE96AC180C182C184C196880ED56EA0
:1000C000F28AC00EF212938081A003D0880ED56E02
:0800D00001D0D56AF8D7030046
:020000040030CA
:0E00000000270E0E000181000FC00FE00F4020
:00000001FF
;PIC18F252
;CRC=0035  CREATED="13-mai-11 14:50"
